S0120000506F6F746D6F64756C652E73726563EA
S1130000FDC0000016C1000014C1000012C10000B0
S113001010C100000EC10000F8C300001AC40000A3
S11300203CC400005EC4000004C1000002C1000022
S113003000C10000FEC00000FCC00000FAC00000C7
S1130040F8C00000F6C00000F4C00000F2C00000D8
S1130050F0C00000EEC00000ECC00000EAC00000E8
S1130060E8C00000E6C00000E4C00000E2C00000F8
S1130070E0C00000DEC00000DCC00000DAC0000008
S1130080D8C00000D6C00000D4C00000D2C0000018
S1130090D0C00000CEC00000CCC00000CAC0000028
S11300A0C8C00000C6C00000C4C00000C2C0000038
S11300B0C0C00000BEC00000BCC00000BAC0000048
S11300C0B8C00000B6C00000B4C00000B2C0000058
S11300D0B0C00000AEC00000ACC00000AAC0000068
S11300E0A8C00000A6C00000A4C00000A2C0000078
S11300F0A0C000009EC000009CC000009AC0000088
S113010098C0000096C0000094C0000092C0000097
S113011091C00000C6C00000FBC0000028C1000060
S113012054C1000080C10000ACC1000082C00000C6
S113013080C000007EC000007CC000007AC00000C7
S113014078C0000076C0000074C0000072C00000D7
S113015070C000006EC000006CC000006AC00000E7
S113016068C0000066C0000064C0000062C00000F7
S113017060C000005EC000005CC000005AC0000007
S113018058C0000056C0000054C0000052C0000017
S113019050C000004EC000004CC000004AC0000027
S11301A048C0000046C0000044C0000042C0000037
S11301B040C000003EC000003CC000003AC0000047
S11301C038C0000036C0000034C0000032C0000057
S11301D030C000002EC000002CC000002AC0000067
S11301E028C0000026C0000024C0000022C0000077
S11301F020C000001EC000001CC0000011241FBE4F
S1130200CFEFCDBFDFE2DEBF10E2A0E0B0E2EAE76D
S1130210F9E002C005900D92A030B107D9F723E2AE
S1130220A0E0B0E201C01D92AD31B207E1F784D382
S1130230A2C3E6CE1F920F920FB60F9211242F93F2
S11302403F934F935F936F937F938F939F93AF935A
S1130250BF93EF93FF93E0910020F091012030973A
S113026079F08091870384FF06C040E060E080E875
S113027093E0099505C040E860E080E893E00995C3
S1130280FF91EF91BF91AF919F918F917F916F916A
S11302905F914F913F912F910F900FBE0F901F9040
S11302A018951F920F920FB60F9211242F933F931C
S11302B04F935F936F937F938F939F93AF93BF936A
S11302C0EF93FF93E0910020F0910120309779F0B3
S11302D08091870385FF06C040E061E080E893E0F9
S11302E0099505C040E861E080E893E00995FF9135
S11302F0EF91BF91AF919F918F917F916F915F919A
S11303004F913F912F910F900FBE0F901F90189512
S11303101F920F920FB60F9211242F933F934F9376
S11303205F936F937F938F939F93AF93BF93EF9359
S1130330FF93E0910020F0910120309739F0409133
S11303408703407C60E080E893E00995FF91EF919A
S1130350BF91AF919F918F917F916F915F914F91D9
S11303603F912F910F900FBE0F901F9018951F92E1
S11303700F920FB60F9211242F933F934F935F93D5
S11303806F937F938F939F93AF93BF93EF93FF9359
S11303904091240250912502E0910420F09105201F
S11303A061E080E092E00995FF91EF91BF91AF91F8
S11303B09F918F917F916F915F914F913F912F9179
S11303C00F900FBE0F901F9018951F920F920FB6AB
S11303D00F9211242F933F934F935F936F937F93C7
S11303E08F939F93AF93BF93EF93FF9340912C020E
S11303F050912D02E0910420F091052062E080E00C
S113040092E00995FF91EF91BF91AF919F918F91E8
S11304107F916F915F914F913F912F910F900FBEFC
S11304200F901F9018951F920F920FB60F921124E0
S11304302F933F934F935F936F937F938F939F93E8
S1130440AF93BF93EF93FF934091340250913502E1
S1130450E0910420F091052064E080E092E00995A9
S1130460FF91EF91BF91AF919F918F917F916F9188
S11304705F914F913F912F910F900FBE0F901F905E
S113048018951F920F920FB60F9211242F933F933A
S11304904F935F936F937F938F939F93AF93BF9388
S11304A0EF93FF9340913C0250913D02E091042070
S11304B0F091052068E080E092E00995FF91EF91CA
S11304C0BF91AF919F918F917F916F915F914F9168
S11304D03F912F910F900FBE0F901F90189588EDAC
S11304E084BFE0E5F0E0808182608083818181FFC8
S11304F0FDCF88ED84BF81E0809340000895CF93C1
S1130500DF9361E083E00BD164E083E008D1E0E0B5
S1130510F8E081818560818380E090E286A397A3DF
S11305208181806181838FE280938008A0E4B6E0BA
S113053088E015968C93159780E216968C931697FF
S1130540C0E9D8E088818560888380818160808368
S113055088E211968C93119755968C9155978064E7
S113056055968C93DF91CF910895769567957695FE
S11305706795769567956093280870932908E0E855
S1130580F8E09485906294879485977F9487882374
S113059021F088E080934506089588E0809346061C
S11305A00895F894809102208F5F8093022008952B
S11305B080910220815018161CF48093022003C0FD
S11305C0109202207894809102200895A0E8B6E069
S11305D08C9188608C93E0EEF7E080818160808369
S11305E016968C911697886016968C9386818160F6
S11305F086830895E0E8F6E0858188608583089520
S1130600E0E8F6E08681886086830895E0E6F6E017
S113061088E082838583818384E0828388E1828B7E
S113062080E0089560E184E07AD0F0DFE0EAF9E068
S113063083E8868380ED878383E0858388E18483F0
S113064080E00895CF93C82FD5DFE0EAF9E09181E7
S113065095FFFDCFD5DFE0EAF9E0918190649183C5
S1130660C08380E0CF910895A0E1B2E281E090E000
S113067020910320222311F080E090E045E051E036
S1130680849F9001859F300D949F300D1124F901B2
S1130690EA5FFF4D255F3E4D8D918193E217F3078D
S11306A0D9F77FDF81E090910320911180E080935E
S11306B003207EDF80E00895E0E1F2E285E193E249
S11306C01192E817F907E1F7E0E1F2E281E08383B0
S11306D011828283148286E086A38BE480931423A0
S11306E08AEE8093132382E18093122385E480931E
S11306F011238FEF80931023B7DFB6CF08958FEFC8
S113070080937000809371008093720080937300D3
S11307108093740080937500809376000895CF933E
S1130720DF931F92CDB7DEB79FB79983F894998171
S1130730E82FF0E0E059FF4F6095808168236083E3
S11307409FBF0F90DF91CF910895CF93DF93282F10
S113075030E0F9017196E295F295F07FFE27E07F93
S1130760FE27A0E0B1E014969C91149713966C9127
S1130770D901149641E050E0EA010A2E02C0CC0FE0
S1130780DD1F0A94E2F7082E02C0440F551F0A9495
S1130790E2F74C2B642370E0EB010A2E02C0D595DE
S11307A0C7950A94E2F7C0FD1AC0082E02C07595D9
S11307B067950A94E2F760FD14C0492350E0BA013A
S11307C002C075956795AA95E2F760FD0CC002C05A
S11307D0559547958A95E2F7842F817005C084E08A
S11307E003C083E001C082E0918190639183220F72
S11307F0331FF901EB5EFC4D0190F081E02D309741
S113080009F00995DF91CF9108951F920F920FB6C9
S11308100F9211242F933F934F935F936F937F9382
S11308208F939F93AF93BF93EF93FF9380E08DDFFC
S1130830FF91EF91BF91AF919F918F917F916F91B4
S11308405F914F913F912F910F900FBE0F901F908A
S113085018951F920F920FB60F9211242F933F9366
S11308604F935F936F937F938F939F93AF93BF93B4
S1130870EF93FF9381E069DFFF91EF91BF91AF9117
S11308809F918F917F916F915F914F913F912F91A4
S11308900F900FBE0F901F9018951F920F920FB6D6
S11308A00F9211242F933F934F935F936F937F93F2
S11308B08F939F93AF93BF93EF93FF9382E045DFB2
S11308C0FF91EF91BF91AF919F918F917F916F9124
S11308D05F914F913F912F910F900FBE0F901F90FA
S11308E018951F920F920FB60F9211242F933F93D6
S11308F04F935F936F937F938F939F93AF93BF9324
S1130900EF93FF9383E021DFFF91EF91BF91AF91CC
S11309109F918F917F916F915F914F913F912F9113
S11309200F900FBE0F901F9018951BBEFC0128ED71
S113093024BF608308950895E2DE61E080E490E0DE
S1130940F4DF60E081E490E0F0DFC9DDF4DF3EDE57
S1130950B3DE68DE2DDE4EDED2DD6EEF70E081E0C8
S113096004DE8AEA6FDE80E090E001968E3421E0B6
S10D09709207D9F7F6CFF894FFCFF1
S9030000FC
