S0120000506F6F746D6F64756C652E73726563EA
S1130000FDC0000016C1000014C1000012C10000B0
S113001010C100000EC10000A8C50000CAC5000040
S1130020ECC500000EC60000C5C1000002C10000FE
S113003000C10000FEC00000FCC00000FAC00000C7
S1130040F8C00000F6C00000F4C00000F2C00000D8
S1130050F0C00000EEC00000ECC00000EAC00000E8
S1130060E8C00000E6C00000E4C00000E2C00000F8
S1130070E0C00000DEC00000DCC00000DAC0000008
S1130080D8C00000D6C00000D4C00000D2C0000018
S1130090D0C00000CEC00000CCC00000CAC0000028
S11300A0C8C00000C6C00000C4C00000C2C0000038
S11300B0C0C0000006C20000BCC00000BAC00000FE
S11300C0B8C00000B6C00000B4C00000B2C0000058
S11300D0B0C00000AEC00000ACC00000AAC0000068
S11300E0A8C00000A6C00000A4C00000A2C0000078
S11300F0A0C000009EC000009CC000009AC0000088
S113010098C0000096C0000094C0000092C0000097
S1130110B4C00000E9C000001EC1000051C20000CC
S11301207DC20000A9C20000D5C2000082C0000048
S113013080C000007EC000007CC000007AC00000C7
S113014078C0000076C0000074C0000072C00000D7
S113015070C000006EC000006CC000006AC00000E7
S113016068C0000066C0000064C0000062C00000F7
S113017060C000005EC000005CC000005AC0000007
S113018058C0000056C0000054C0000052C0000017
S113019050C000004EC000004CC000004AC0000027
S11301A048C0000046C0000044C0000042C0000037
S11301B040C000003EC000003CC000003AC0000047
S11301C038C0000036C0000034C0000032C0000057
S11301D030C000002EC000002CC000002AC0000067
S11301E028C0000026C0000024C0000022C0000077
S11301F020C000001EC000001CC0000011241FBE4F
S1130200CFEFCDBFDFE2DEBF10E2A0E0B0E2ECE270
S1130210FDE002C005900D92A030B107D9F724E2A9
S1130220A0E0B0E201C01D92AF34B207E1F734D5CB
S11302307BC5E6CE10920420109205201092062071
S11302401092072010920020109201201092022098
S11302501092032060E070E0CB01089580910420A7
S113026090910520A0910620B0910720BC01CD01FA
S1130270605F7F4F8F4F9F4F08951F920F920FB66D
S11302800F9211242F933F934F935F936F937F9318
S11302908F939F93AF93BF93EF93FF93E0910820C5
S11302A0F0910920309779F08091870384FF06C08C
S11302B040E060E080E893E0099505C040E860E034
S11302C080E893E00995FF91EF91BF91AF919F91E1
S11302D08F917F916F915F914F913F912F910F90EB
S11302E00FBE0F901F9018951F920F920FB60F928A
S11302F011242F933F934F935F936F937F938F9327
S11303009F93AF93BF93EF93FF93E0910820F091F5
S11303100920309779F08091870385FF06C040E07B
S113032061E080E893E0099505C040E861E080E879
S113033093E00995FF91EF91BF91AF919F918F91B8
S11303407F916F915F914F913F912F910F900FBECD
S11303500F901F9018951F920F920FB60F921124B1
S11303602F933F934F935F936F937F938F939F93B9
S1130370AF93BF93EF93FF93E0910820F09109208E
S1130380309739F040918703407C60E080E893E047
S11303900995FF91EF91BF91AF919F918F917F91BB
S11303A06F915F914F913F912F910F900FBE0F90DE
S11303B01F9018951F920F920FB60F9211242F932E
S11303C03F934F935F936F937F938F939F93AF93D9
S11303D0BF93EF93FF93BCD187E0D1D1FF91EF910D
S11303E0BF91AF919F918F917F916F915F914F9149
S11303F03F912F910F900FBE0F901F901895CF92A1
S1130400DF92EF92FF926B017C0120910A20022E71
S1130410000C330BC901019662E370E05ED4E091F5
S11304200B200E2E000CFF0B8E179F0799F0F9017D
S1130430EE0FFF1FEE0FFF1F2E0F3F1FF901E45FAA
S1130440FF4DC082D182E282F382448380930A20EA
S113045080E001C081E0FF90EF90DF90CF9008959D
S1130460CF93DF931092092160E485E008D3E0E89C
S1130470F6E083E0818380898863808B8189886347
S1130480818BC0EAD4E0898580648987E7DEDC015A
S1130490CB01880F991FAA1FBB1F682F61606B8750
S11304A0DDDE462F65E070E080E090E065D288856F
S11304B08463888789858860898780E0DF91CF910C
S11304C008951F920F920FB60F9211242F933F930A
S11304D04F935F936F937F938F939F93AF93BF9348
S11304E0CF93DF93EF93FF938091AA0486FF11C00B
S11304F080FD0FC08091072180930621E0EAF4E09B
S11305008285806482878185826081871092082138
S113051044C0982F9174913441F4E0EAF4E0928558
S11305209064928791859360918788238CF460917D
S1130530062181E0860F8093062170E080E090E040
S113054029D2E0EAF4E0848781858360818725C02D
S113055080910821882319F0813079F01EC081E050
S113056080930821E0EAF4E0848580930721809356
S1130570062181858360818710C0C0EAD4E04C8560
S11305806091062181E0860F8093062170E080E06F
S113059090E035DF898583608987FF91EF91DF9152
S11305A0CF91BF91AF919F918F917F916F915F9107
S11305B04F913F912F910F900FBE0F901F90189560
S11305C01F920F920FB60F9211242F933F934F93C4
S11305D05F936F937F938F939F93AF93BF93EF93A7
S11305E0FF934091240250912502E0913621F0912D
S11305F0372161E080E092E00995FF91EF91BF918E
S1130600AF919F918F917F916F915F914F913F91A6
S11306102F910F900FBE0F901F9018951F920F925D
S11306200FB60F9211242F933F934F935F936F93C1
S11306307F938F939F93AF93BF93EF93FF934091D7
S11306402C0250912D02E0913621F091372162E085
S113065080E092E00995FF91EF91BF91AF919F9156
S11306608F917F916F915F914F913F912F910F9057
S11306700FBE0F901F9018951F920F920FB60F92F6
S113068011242F933F934F935F936F937F938F9393
S11306909F93AF93BF93EF93FF9340913402509194
S11306A03502E0913621F091372164E080E092E058
S11306B00995FF91EF91BF91AF919F918F917F9198
S11306C06F915F914F913F912F910F900FBE0F90BB
S11306D01F9018951F920F920FB60F9211242F930B
S11306E03F934F935F936F937F938F939F93AF93B6
S11306F0BF93EF93FF9340913C0250913D02E091F0
S11307003621F091372168E080E092E00995FF916D
S1130710EF91BF91AF919F918F917F916F915F9175
S11307204F913F912F910F900FBE0F901F901895EE
S113073088ED84BFE0E5F0E0808182608083818180
S113074081FFFDCF88ED84BF81E080934000089550
S113075088D081E090E0A0E0B0E080930A219093FB
S11307600B21A0930C21B0930D2141E066E170E0D0
S113077080E090E001D160E070E0CB010895CF9378
S1130780C82F97D02C2F30E021503109F901EE0FFA
S1130790FF1FEE0FFF1FE25FFE4D80819181A2815A
S11307A0B381892B8A2B8B2B29F4809133218F5F82
S11307B080933321220F331F220F331FF901E25F8D
S11307C0FE4D81E090E0A0E0B0E080839183A283BD
S11307D0B383C09332214091332164E170E080E01F
S11307E090E0CAD04C2F65E170E080E090E0C4D086
S11307F067D0CF910895CF93DF9361E083E03FD139
S113080064E083E03CD1E0E0F8E0818185608183AD
S113081080E090E286A397A38181806181838FE247
S113082080938008A0E4B6E088E015968C93159731
S113083080E216968C931697C0E9D8E0888185608B
S1130840888380818160808388E211968C931197DC
S113085055968C915597806455968C93DF91CF91E2
S11308600895E0E8F8E08485877D8487E0E4F6E095
S113087088E0858380E286830895769567957695EA
S11308806795769567956093280870932908E0E842
S1130890F8E09485906294879485977F9487882361
S11308A021F088E080934506089588E08093460609
S11308B00895F894809134218F5F809334210895B2
S11308C080913421815018161CF48093342103C084
S11308D0109234217894809134210895A0E8B6E0F0
S11308E08C9188608C93E0EEF7E080818160808356
S11308F016968C911697886016968C9386818160E3
S113090086830895E0E8F6E085818860858308950C
S1130910E0E8F6E08681886086830895E0E6F6E004
S113092088E082838583818384E0828388E1828B6B
S113093080E0089560E184E0A2D0F0DFE0EAF9E02D
S113094083E8868380ED878383E0858388E18483DD
S113095080E00895CF93C82FD5DFE0EAF9E09181D4
S113096095FFFDCFD5DFE0EAF9E0918190649183B2
S1130970C08380E0CF9108956F3F71058105910593
S113098009F030F4FB01EE5BFC4D408380E00895F8
S113099081E008951F936F3F71058105910509F06A
S11309A080F41091352145E051E014039001159F26
S11309B0300D1124620F731FFB01E85CFE4D808132
S11309C001C080E01F910895A2E4B3E281E090E0C9
S11309D020913521222311F080E090E045E051E0A0
S11309E0849F9001859F300D949F300D1124F9014F
S11309F0E85CFE4D235C3D4D8D918193E217F30736
S1130A00D9F757DF81E090913521911180E08093EF
S1130A10352156DF80E00895E2E4F3E287E494E2CE
S1130A201192E817F907E1F7E2E4F3E281E0838346
S1130A3011828283148286E086A38BE48093462409
S1130A408AEE8093452482E18093442485E4809354
S1130A5043248FEF80934224B7DFB6CF08958FEFFE
S1130A608093700080937100809372008093730070
S1130A708093740080937500809376000895CF93DB
S1130A80DF931F92CDB7DEB79FB79983F89499810E
S1130A90E82FF0E0E059FF4F609580816823608380
S1130AA09FBF0F90DF91CF910895CF93DF93282FAD
S1130AB030E0F9017196E295F295F07FFE27E07F30
S1130AC0FE27A0E0B1E014969C91149713966C91C4
S1130AD0D901149641E050E0EA010A2E02C0CC0F7D
S1130AE0DD1F0A94E2F7082E02C0440F551F0A9432
S1130AF0E2F74C2B642370E0EB010A2E02C0D5957B
S1130B00C7950A94E2F7C0FD1AC0082E02C0759575
S1130B1067950A94E2F760FD14C0492350E0BA01D6
S1130B2002C075956795AA95E2F760FD0CC002C0F6
S1130B30559547958A95E2F7842F817005C084E026
S1130B4003C083E001C082E0918190639183220F0E
S1130B50331FF901E95BFB4D0190F081E02D3097E3
S1130B6009F00995DF91CF9108951F920F920FB666
S1130B700F9211242F933F934F935F936F937F931F
S1130B808F939F93AF93BF93EF93FF9380E08DDF99
S1130B90FF91EF91BF91AF919F918F917F916F9151
S1130BA05F914F913F912F910F900FBE0F901F9027
S1130BB018951F920F920FB60F9211242F933F9303
S1130BC04F935F936F937F938F939F93AF93BF9351
S1130BD0EF93FF9381E069DFFF91EF91BF91AF91B4
S1130BE09F918F917F916F915F914F913F912F9141
S1130BF00F900FBE0F901F9018951F920F920FB673
S1130C000F9211242F933F934F935F936F937F938E
S1130C108F939F93AF93BF93EF93FF9382E045DF4E
S1130C20FF91EF91BF91AF919F918F917F916F91C0
S1130C305F914F913F912F910F900FBE0F901F9096
S1130C4018951F920F920FB60F9211242F933F9372
S1130C504F935F936F937F938F939F93AF93BF93C0
S1130C60EF93FF9383E021DFFF91EF91BF91AF9169
S1130C709F918F917F916F915F914F913F912F91B0
S1130C800F900FBE0F901F9018951BBEFC0128ED0E
S1130C9024BF608308950895E2DE61E080E490E07B
S1130CA0F4DF60E081E490E0F0DF42DDF4DF16DEA3
S1130CB0B3DE40DE05DE26DE9EDDBCDAD1DB6EEF80
S1130CC070E081E0DADD8AEA45DE80E090E00196BA
S1130CD08E3421E09207D9F7F6CF97FB072E16F44E
S1130CE0009406D077FD08D00BD007FC05D03EF465
S1130CF0909581959F4F0895709561957F4F0895C4
S1130D00AA1BBB1B51E107C0AA1FBB1FA617B7072D
S1130D1010F0A61BB70B881F991F5A95A9F7809549
S10F0D209095BC01CD010895F894FFCF1C
S9030000FC
