S0120000506F6F746D6F64756C652E73726563EA
S1130000FDC0000018C1000016C1000014C10000AA
S113001012C1000010C100000C94C5080C94E9083A
S11300200C940D090C9431093FC3000004C1000075
S113003002C1000000C10000FEC00000FCC00000BE
S1130040FAC00000F8C00000F6C00000F4C00000D0
S1130050F2C00000F0C00000EEC00000ECC00000E0
S1130060EAC00000E8C00000E6C00000E4C00000F0
S1130070E2C00000E0C00000DEC00000DCC0000000
S1130080DAC00000D8C00000D6C00000D4C0000010
S1130090D2C00000D0C00000CEC00000CCC0000020
S11300A0CAC00000C8C00000C6C00000C4C0000030
S11300B0C2C00000F5C30000BEC00000BCC0000008
S11300C0BAC00000B8C00000B6C00000B4C0000050
S11300D0B2C00000B0C00000AEC00000ACC0000060
S11300E0AAC00000A8C00000A6C00000A4C0000070
S11300F0A2C00000A0C000009EC000009CC0000080
S11301009AC0000098C0000096C0000094C000008F
S1130110C8C00000FDC0000032C10000C1C400001E
S1130120EDC4000019C5000045C5000084C00000EE
S113013082C0000080C000007EC000007CC00000BF
S11301407AC0000078C0000076C0000074C00000CF
S113015072C0000070C000006EC000006CC00000DF
S11301606AC0000068C0000066C0000064C00000EF
S113017062C0000060C000005EC000005CC00000FF
S11301805AC0000058C0000056C0000054C000000F
S113019052C0000050C000004EC000004CC000001F
S11301A04AC0000048C0000046C0000044C000002F
S11301B042C0000040C000003EC000003CC000003F
S11301C03AC0000038C0000036C0000034C000004F
S11301D032C0000030C000002EC000002CC000005F
S11301E02AC0000028C0000026C0000024C000006F
S11301F022C0000020C000001EC0000011241FBE49
S1130200CFEFCDBFDFE2DEBF10E2A0E0B0E2EEE36D
S1130210F3E102C005900D92A230B107D9F724E2B0
S1130220A2E0B0E201C01D92AD36B207E1F70E9430
S11302305C090C949D09E4CE1092062010920720CC
S1130240109208201092092010920220109203208C
S1130250109204201092052060E070E0CB01089514
S113026060910620709107208091082090910920C8
S11302700895609102207091032080910420909150
S1130280052008958091062090910720A0910820D0
S1130290B0910920BC01CD01605F7F4F8F4F9F4F0C
S11302A008951F920F920FB60F9211242F933F932C
S11302B04F935F936F937F938F939F93AF93BF936A
S11302C0EF93FF93E0910A20F0910B20309779F09F
S11302D08091870384FF06C040E060E080E893E0FB
S11302E0099505C040E860E080E893E00995FF9136
S11302F0EF91BF91AF919F918F917F916F915F919A
S11303004F913F912F910F900FBE0F901F90189512
S11303101F920F920FB60F9211242F933F934F9376
S11303205F936F937F938F939F93AF93BF93EF9359
S1130330FF93E0910A20F0910B20309779F080919F
S1130340870385FF06C040E061E080E893E00995FB
S113035005C040E861E080E893E00995FF91EF91E2
S1130360BF91AF919F918F917F916F915F914F91C9
S11303703F912F910F900FBE0F901F9018951F92D1
S11303800F920FB60F9211242F933F934F935F93C5
S11303906F937F938F939F93AF93BF93EF93FF9349
S11303A0E0910A20F0910B20309739F040918703B7
S11303B0407C60E080E893E00995FF91EF91BF9164
S11303C0AF919F918F917F916F915F914F913F91E9
S11303D02F910F900FBE0F901F901895CF93DF931E
S11303E0CDB7DEB72597CDBFDEBF49835A836B8374
S11303F07C83482F64E270E080E090E0C1D54C81BA
S113040063E270E080E090E0BBD5498160E270E097
S113041080E090E0B5D54B8162E270E080E090E04E
S1130420AFD54A8161E270E080E090E0A9D580E038
S11304302596CDBFDEBFDF91CF910895623271055D
S113044081059105F1F058F460327105810591053B
S113045091F0613271058105910581F039C06432F2
S113046071058105910599F078F065327105810572
S1130470910581F02DC040931D202AC040931E2079
S113048027C040931F2024C04093202021C04093C4
S113049021201EC085E0EDE1F0E2A2E2B0E201908D
S11304A00D928A95E1F7409122205091232060918A
S11304B02420709125208091262090DF81E0809374
S11304C00020EDE1F0E21082118212821382148284
S11304D080E008950ED160931120709312208093D0
S11304E0132090931420ABD380930C20882311F015
S11304F0D8D401C0DCD480912220813031F018F0AE
S11305008230A1F0B6C07CD4B4C080910C20882382
S113051041F060E070E8809110207ED410920F20AA
S1130520A8C06ED481E080930F20A3C080910F20D7
S1130530823009F449C028F4882351F0813061F0F5
S113054094C0833009F44DC0843009F482C08DC056
S113055057D410920E2089C080910D208823D1F0A9
S11305608091112090911220A0911320B091142019
S1130570843F9140A105B10548F460E070E88091A2
S113058010204AD482E080930E206FC081E08093D3
S11305900E206BC08091112090911220A091132005
S11305A0B0911420853F9140A105B10548F060E069
S11305B070E88091102030D482E080930E2055C0E2
S11305C081E080930E2051C080910C20882329F073
S11305D017D483E080930E2048C082E080930E20DD
S11305E044C080910D208823D1F0809111209091F6
S11305F01220A0911320B0911420853F9140A105B1
S1130600B10548F060E070E88091102005D484E0E2
S113061080930E202AC083E080930E2026C0809110
S1130620112090911220A0911320B0911420843FA6
S11306309140A105B10548F460E070E88091102074
S1130640EBD384E080930E2010C083E080930E20CF
S11306500CC080910C20882321F084E080930E202C
S113066004C0CED381E080930E2080910E2080932D
S11306700F2080E00895F4DD862F8D7F11F0673020
S113068019F410920D2003C081E080930D2031D025
S11306906093192070931A2080931B2090931C2040
S11306A0E8DD6093102008951F920F920FB60F9209
S11306B011242F933F934F935F936F937F938F9363
S11306C09F93AF93BF93EF93FF93F2D287E007D347
S11306D0FF91EF91BF91AF919F918F917F916F9116
S11306E05F914F913F912F910F900FBE0F901F90EC
S11306F018958091272048EE53E0849FB001859F90
S1130700700D1124CB01770FAA0BBB0BE0910804E9
S1130710F0910904E49F9001E59F300DF49F300DA2
S11307201124232F332726952695BC01CD01620F72
S1130730731F811D911D0895809327201092080432
S1130740109209040895CF92DF92EF92FF926B0109
S11307507C0120912820022E000C330BC901019644
S113076062E370E0C3D5E09129200E2E000CFF0B4C
S11307708E179F0799F0F901EE0FFF1FEE0FFF1F71
S11307802E0F3F1FF901E65DFF4DC082D182E28248
S1130790F38244838093282080E001C081E0FF90AD
S11307A0EF90DF90CF900895CF93DF93CDB7DEB76E
S11307B02A97CDBFDEBF4CD3809129209091282069
S11307C089130AC04CD38FEF9FEFDC0189839A838E
S11307D0AB83BC831D8223C0082E000C990BFC0143
S11307E0EE0FFF1FEE0FFF1FE80FF91FE65DFF4D31
S11307F025E0DE01169601900D922A95E1F7019607
S113080062E370E073D58093292029D385E0FE014B
S11308103696DE01119601900D928A95E1F72981B1
S11308203A814B815C816D8170E080E090E02A9692
S1130830CDBFDEBFDF91CF910895CF93DF931092A8
S1130840272160E485E02BD4E0E8F6E087E08183AB
S113085080898863808B81898863818B84E0858328
S1130860C0EAD4E08985806489870CDDDC01CB0192
S1130870880F991FAA1FBB1F682F61606B8702DD59
S1130880462F65E070E080E090E07AD38885846349
S1130890888789858860898780E0DF91CF91089572
S11308A01F920F920FB60F9211242F933F934F93E1
S11308B05F936F937F938F939F93AF93BF93CF93E4
S11308C0DF93EF93FF938091AA0486FF11C080FD0C
S11308D00FC08091252180932421E0EAF4E08285F1
S11308E0806482878185826081871092262144C03A
S11308F0982F9174913441F4E0EAF4E09285906485
S1130900928791859360918788238CF46091242148
S113091081E0860F8093242170E080E090E03ED354
S1130920E0EAF4E0848781858360818725C0809133
S11309302621882319F0813079F01EC081E080934C
S11309402621E0EAF4E08485809325218093242104
S113095081858360818710C0C0EAD4E04C856091B2
S1130960242181E0860F8093242170E080E090E0D0
S1130970EADE898583608987FF91EF91DF91CF91CA
S1130980BF91AF919F918F917F916F915F914F91A3
S11309903F912F910F900FBE0F901F901895CF92FB
S11309A0DF92EF92FF920F931F93CF93DF93CDB714
S11309B0DEB72597CDBFDEBFC12CD12C7601F4DE86
S11309C029833A834B835C8309811A812B813C817F
S11309D00F3F8FEF18072807380709F453C0063173
S11309E011052105310509F43DC080F402311105DA
S11309F02105310539F1043111052105310561F174
S1130A00033011052105310589F51FC00032110598
S1130A102105310558F1063211052105310530F063
S1130A20003611052105310531F020C0462FC901DA
S1130A30B80104DD1BC0462F60E670E080E090E062
S1130A409FD214C0862F78DE11C0462F63E070E079
S1130A5080E090E095D20AC066E570E080E090E026
S1130A60F4D004C070E080E090E075D18FEFC81A34
S1130A70D80AE80AF80A82E3C816D104E104F104AA
S1130A8009F09DCFC701B6012596CDBFDEBFDF912A
S1130A90CF911F910F91FF90EF90DF90CF90089529
S1130AA01F920F920FB60F9211242F933F934F93DF
S1130AB05F936F937F938F939F93AF93BF93EF93C2
S1130AC0FF934091240250912502E0915421F0912A
S1130AD0552161E080E092E00995FF91EF91BF918B
S1130AE0AF919F918F917F916F915F914F913F91C2
S1130AF02F910F900FBE0F901F9018951F920F9279
S1130B000FB60F9211242F933F934F935F936F93DC
S1130B107F938F939F93AF93BF93EF93FF934091F2
S1130B202C0250912D02E0915421F091552162E064
S1130B3080E092E00995FF91EF91BF91AF919F9171
S1130B408F917F916F915F914F913F912F910F9072
S1130B500FBE0F901F9018951F920F920FB60F9211
S1130B6011242F933F934F935F936F937F938F93AE
S1130B709F93AF93BF93EF93FF93409134025091AF
S1130B803502E0915421F091552164E080E092E037
S1130B900995FF91EF91BF91AF919F918F917F91B3
S1130BA06F915F914F913F912F910F900FBE0F90D6
S1130BB01F9018951F920F920FB60F9211242F9326
S1130BC03F934F935F936F937F938F939F93AF93D1
S1130BD0BF93EF93FF9340913C0250913D02E0910B
S1130BE05421F091552168E080E092E00995FF914D
S1130BF0EF91BF91AF919F918F917F916F915F9191
S1130C004F913F912F910F900FBE0F901F90189509
S1130C1088ED84BFE0E5F0E080818260808381819B
S1130C2081FFFDCF88ED84BF81E08093400008956B
S1130C30E0E2F6E084E0828388E1828B089580918B
S1130C40280682FB882780F9089566357105810599
S1130C50910549F5FDD01092512110925021ECE2FA
S1130C60F1E280E591E21192119211921192E8174A
S1130C70F907C9F740E064E170E080E090E080D1DA
S1130C804091502165E170E080E090E079D140919D
S1130C90282166E170E080E090E072D1E0D060E06D
S1130CA070E0CB01089561E070E080E090E0089589
S1130CB0A7D081E090E0A0E0B0E080932821909359
S1130CC02921A0932A21B0932B2141E066E170E011
S1130CD080E090E055D160E070E0CB010895CF93BF
S1130CE0C82FB6D02C2F30E021503109F901EE0F76
S1130CF0FF1FEE0FFF1FE45DFE4D80819181A281F5
S1130D00B381892B8A2B8B2B29F4809151218F5FFE
S1130D1080935121220F331F220F331FF901E45D09
S1130D20FE4D81E090E0A0E0B0E080839183A28357
S1130D30B383C09350214091512164E170E080E07D
S1130D4090E01ED14C2F65E170E080E090E018D176
S1130D5086D0CF910895623171058105910541F0E6
S1130D60A7DF88E0BCDF61E070E080E090E00895F8
S1130D70109228211092292110922A2110922B21BD
S1130D8040E066E170E080E090E0FAD060E070E07E
S1130D90CB010895CF93DF9361E083E080D164E0D9
S1130DA083E07DD1E0E0F8E081818560818380E0AB
S1130DB090E286A397A38181806181838FE28093EF
S1130DC08008A0E4B6E088E015968C93159780E23D
S1130DD016968C931697C0E9D8E08881856088833D
S1130DE080818160808388E211968C931197559657
S1130DF08C915597806455968C93DF91CF9108958B
S1130E00E0E8F8E08485877D8487E0E4F6E088E024
S1130E10858380E2868308957695679576956795B0
S1130E20769567956093280870932908E0E8F8E0C0
S1130E309485906294879485977F9487882321F082
S1130E4088E080934506089588E0809346060895D7
S1130E50F894809152218F5F80935221089580915C
S1130E605221815018161CF48093522103C0109211
S1130E7052217894809152210895A0E8B6E08C9193
S1130E8088608C93E0EEF7E0808181608083169621
S1130E908C911697886016968C93868181608683E0
S1130EA00895E0E8F6E08581886085830895E0E8A8
S1130EB0F6E08681886086830895809141018823C5
S1130EC074F486D0E1E4F1E0808180618083E0E421
S1130ED0F1E080818068808380818061808380E00C
S1130EE00895E0E6F6E088E082838583818384E0E8
S1130EF0828388E1828B80E00895F3DFE4EAF9E0FD
S1130F00808188608083E5EAF9E080818083808144
S1130F1083608083E6EAF9E0808183688083E7EA7E
S1130F20F9E08081806D808361E084E0B8D0E0E006
S1130F30F1E0808180688083E2E4F1E08081806474
S1130F4080838081806180838081808310924301CB
S1130F5085E091E08093440190934501109246010D
S1130F6082D08093480180EA80934C01E0E4F1E070
S1130F7080818062808380818068808380E008959E
S1130F806F3F71058105910509F030F4FB01E05ACA
S1130F90FC4D408380E0089581E008951F936F3FE6
S1130FA071058105910509F080F41091532145E004
S1130FB051E014039001159F300D1124620F731F2B
S1130FC0FB01EA5AFE4D808101C080E01F91089523
S1130FD0A0E6B3E281E090E020915321222311F0B6
S1130FE080E090E045E051E0849F9001859F300DC2
S1130FF0949F300D1124F901EA5AFE4D255A3D4DB6
S11310008D918193E217F307D9F722DF81E0909164
S11310105321911180E08093532121DF80E00895D2
S1131020E0E6F3E285E694E21192E817F907E1F7C6
S1131030E0E6F3E281E0838311828283148286E016
S113104086A38BE4809364248AEE8093632482E1F4
S11310508093622485E4809361248FEF80936024DD
S1131060B7DFB6CF08954091532125E031E0420324
S1131070C001439F900D11248A5A9E4D08958FEF0D
S1131080809370008093710080937200809373004A
S11310908093740080937500809376000895CF93B5
S11310A0DF931F92CDB7DEB79FB79983F8949981E8
S11310B0E82FF0E0E059FF4F60958081682360835A
S11310C09FBF0F90DF91CF910895CF93DF93282F87
S11310D030E0F9017196E295F295F07FFE27E07F0A
S11310E0FE27A0E0B1E014969C91149713966C919E
S11310F0D901149641E050E0EA010A2E02C0CC0F57
S1131100DD1F0A94E2F7082E02C0440F551F0A940B
S1131110E2F74C2B642370E0EB010A2E02C0D59554
S1131120C7950A94E2F7C0FD1AC0082E02C075954F
S113113067950A94E2F760FD14C0492350E0BA01B0
S113114002C075956795AA95E2F760FD0CC002C0D0
S1131150559547958A95E2F7842F817005C084E000
S113116003C083E001C082E0918190639183220FE8
S1131170331FF901EB59FB4D0190F081E02D3097BD
S113118009F00995DF91CF9108951F920F920FB640
S11311900F9211242F933F934F935F936F937F93F9
S11311A08F939F93AF93BF93EF93FF9380E08DDF73
S11311B0FF91EF91BF91AF919F918F917F916F912B
S11311C05F914F913F912F910F900FBE0F901F9001
S11311D018951F920F920FB60F9211242F933F93DD
S11311E04F935F936F937F938F939F93AF93BF932B
S11311F0EF93FF9381E069DFFF91EF91BF91AF918E
S11312009F918F917F916F915F914F913F912F911A
S11312100F900FBE0F901F9018951F920F920FB64C
S11312200F9211242F933F934F935F936F937F9368
S11312308F939F93AF93BF93EF93FF9382E045DF28
S1131240FF91EF91BF91AF919F918F917F916F919A
S11312505F914F913F912F910F900FBE0F901F9070
S113126018951F920F920FB60F9211242F933F934C
S11312704F935F936F937F938F939F93AF93BF939A
S1131280EF93FF9383E021DFFF91EF91BF91AF9143
S11312909F918F917F916F915F914F913F912F918A
S11312A00F900FBE0F901F9018951BBEFC0128EDE8
S11312B024BF608308950895E2DE61E080E490E055
S11312C0F4DF60E081E490E0F0DFA2DCF4DFD5DD60
S11312D0A7DE13DEC4DDE5DD5DDD0E941C01ADDAB1
S11312E0A7DCC9D95CDBF6D8E8DDFCCF97FB072E79
S11312F016F4009406D077FD08D00BD007FC05D077
S11313003EF4909581959F4F0895709561957F4F18
S11313100895AA1BBB1B51E107C0AA1FBB1FA61738
S1131320B70710F0A61BB70B881F991F5A95A9F78A
S111133080959095BC01CD010895F894FFCFEF
S105133E0100A8
S9030000FC
