S0120000506F6F746D6F64756C652E73726563EA
S1130000FDC0000016C1000014C1000012C10000B0
S113001010C100000EC1000063C3000085C30000CE
S1130020A7C30000C9C3000004C1000002C100004E
S113003000C10000FEC00000FCC00000FAC00000C7
S1130040F8C00000F6C00000F4C00000F2C00000D8
S1130050F0C00000EEC00000ECC00000EAC00000E8
S1130060E8C00000E6C00000E4C00000E2C00000F8
S1130070E0C00000DEC00000DCC00000DAC0000008
S1130080D8C00000D6C00000D4C00000D2C0000018
S1130090D0C00000CEC00000CCC00000CAC0000028
S11300A0C8C00000C6C00000C4C00000C2C0000038
S11300B0C0C00000BEC00000BCC00000BAC0000048
S11300C0B8C00000B6C00000B4C00000B2C0000058
S11300D0B0C00000AEC00000ACC00000AAC0000068
S11300E0A8C00000A6C00000A4C00000A2C0000078
S11300F0A0C000009EC000009CC000009AC0000088
S1130100EFC1000096C0000094C0000092C000003F
S113011090C000008EC000008CC000008AC00000A7
S113012088C0000086C0000084C0000082C00000B7
S113013080C000007EC000007CC000007AC00000C7
S113014078C0000076C0000074C00000EAC100005E
S113015070C000006EC000006CC000006AC00000E7
S11301607DC100001DC100005FC1000062C000002D
S113017060C000005EC000005CC000005AC0000007
S113018058C0000056C0000054C0000052C0000017
S113019050C000004EC000004CC000004AC0000027
S11301A048C0000046C0000044C0000042C0000037
S11301B040C000003EC000003CC000003AC0000047
S11301C038C0000036C0000034C0000032C0000057
S11301D030C000002EC000002CC000002AC0000067
S11301E028C0000026C0000024C0000022C0000077
S11301F020C000001EC000001CC0000011241FBE4F
S1130200CFEFCDBFDFE2DEBF10E2A0E0B0E2E8E274
S1130210F8E002C005900D92A030B107D9F725E2AD
S1130220A0E0B0E201C01D92A432B207E1F7E9D226
S1130230F9C2E6CEF894809100208F5F809300206D
S1130240089580910020815018161CF4809300209A
S113025003C0109200207894809100200895A0E8B3
S1130260B6E08C9188608C93E0EEF7E08081816049
S1130270808316968C911697886016968C93868147
S1130280816086830895E0E8F6E08581886085834F
S11302900895CF93DF93E0E6F6E088E0828324E0DC
S11302A022838283858398E1928B2283A0EAB9E03A
S11302B083E015968C9315972CE016962C9316973D
S11302C020E317962C931797C0E4D9E08E8320E09F
S11302D03DE72EA33FA318A219A24FB7F89421E13A
S11302E033E220931024309311242093122430936A
S11302F01324109214244FBF4FB7F89428E134E22A
S113030020931725309318252093192530931A2507
S113031010921B254FBF14969C93149713961C920E
S1130320109216241092172410921524928594602A
S1130330928792899260928B8187DF91CF91089501
S11303402FB7F89490911B252FBF9F3FD9F0E7E179
S1130350F5E2A081B1818C938081918101968083A3
S113036091838E179F0731F488E194E280931725D7
S1130370909318259FB7F894EBE1F5E280818F5FA5
S113038080839FBF88E080936106E0EAF9E080E41F
S1130390818383818F60838381E080931624089511
S11303A01F920F920FB60F9211242F933F938F93A6
S11303B09F93AF93BF93EF93FF939FB7F89480916C
S11303C01B259FBF8823E1F0A9E1B5E2ED91FC91E3
S11303D011979191ED93FC93E751F54231F428E1A3
S11303E034E22093192530931A252FB7F894EBE1C2
S11303F0F5E28081815080832FBF9093A00907C0CC
S1130400E0EAF9E083818C7F838380E48183FF9138
S1130410EF91BF91AF919F918F913F912F910F9049
S11304200FBE0F901F9018951F920F920FB60F9248
S113043011248F93EF93FF93E0EAF9E08381807FA7
S113044083831092162488E080936206FF91EF91D3
S11304508F910F900FBE0F901F9018951F920F92BF
S11304600FB60F9211242F938F939F93AF93BF9343
S1130470EF93FF939FB7F894809114249FBF8F3F0D
S1130480E9F08091A009E0E1F4E2A081B1818C93CC
S1130490808191810196808391838E179F0731F427
S11304A081E193E280931024909311249FB7F894F0
S11304B0E4E1F4E280818F5F80839FBFE0E4F9E0B0
S11304C010A211A281E08083FF91EF91BF91AF91BF
S11304D09F918F912F910F900FBE0F901F901895A1
S11304E01F920F920FB60F9211248F939F93EF9345
S11304F0FF9391E09093172410926906E0EAF9E0E3
S1130500838180638383E0E4F9E010A211A29083E5
S1130510FF91EF919F918F910F900FBE0F901F90BD
S113052018951F920F920FB60F9211248F93EF9389
S1130530FF93E0E4F9E0108210A211A281E080931D
S1130540152410921724E0E6F6E0848783E081877F
S1130550E0EAF9E083818F7C8383FF91EF918F91AF
S11305600F900FBE0F901F901895ACE0B2E281E09F
S113057090E020910120222311F080E090E045E0FA
S113058051E0849F9001859F300D949F300D11247C
S1130590F901EE5FFF4D295F3E4D8D918193E21786
S11305A0F307D9F747DE81E090910120911180E0B3
S11305B08093012046DE80E00895ECE0F2E281E1E0
S11305C093E21192E817F907E1F7ECE0F2E281E037
S11305D0838311828283148286E086A38BE48093D2
S11305E010238AEE80930F2382E180930E2385E407
S11305F080930D238FEF80930C23B7DFB6CF08953C
S11306008FEF8093700080937100809372008093C9
S1130610730080937400809375008093760008952E
S1130620CF93DF93282F30E0F9017196E295F2958C
S1130630F07FFE27E07FFE27A0E0B1E014969C91B6
S1130640149713966C91D901149641E050E0EA0195
S11306500A2E02C0CC0FDD1F0A94E2F7082E02C056
S1130660440F551F0A94E2F74C2B642370E0EB010E
S11306700A2E02C0D595C7950A94E2F7C0FD1AC0A8
S1130680082E02C0759567950A94E2F760FD14C0C0
S1130690492350E0BA0102C075956795AA95E2F71F
S11306A060FD0CC002C0559547958A95E2F7842FEA
S11306B0817005C084E003C083E001C082E09181C1
S11306C090639183220F331FF901E45EFA4D019088
S11306D0F081E02D309709F00995DF91CF910895CD
S11306E01F920F920FB60F9211242F933F934F93A3
S11306F05F936F937F938F939F93AF93BF93EF9386
S1130700FF9380E08DDFFF91EF91BF91AF919F91B7
S11307108F917F916F915F914F913F912F910F90A6
S11307200FBE0F901F9018951F920F920FB60F9245
S113073011242F933F934F935F936F937F938F93E2
S11307409F93AF93BF93EF93FF9381E069DFFF9192
S1130750EF91BF91AF919F918F917F916F915F9135
S11307604F913F912F910F900FBE0F901F901895AE
S11307701F920F920FB60F9211242F933F934F9312
S11307805F936F937F938F939F93AF93BF93EF93F5
S1130790FF9382E045DFFF91EF91BF91AF919F916D
S11307A08F917F916F915F914F913F912F910F9016
S11307B00FBE0F901F9018951F920F920FB60F92B5
S11307C011242F933F934F935F936F937F938F9352
S11307D09F93AF93BF93EF93FF9383E021DFFF9148
S11307E0EF91BF91AF919F918F917F916F915F91A5
S11307F04F913F912F910F900FBE0F901F9018951E
S11308000895FEDEFDDF2BDD1CDDD7DE42DD3BDDA2
S11308108AEA96DD80E090E001968E3421E092072A
S10B0820D9F7F6CFF894FFCFDD
S9030000FC
